{
  "_format": "hh-sol-artifact-1",
  "contractName": "MyEpicGame",
  "sourceName": "contracts/MyEpicGame.sol",
  "abi": [
    {
      "inputs": [
        {
          "internalType": "string[]",
          "name": "characterNames",
          "type": "string[]"
        },
        {
          "internalType": "string[]",
          "name": "characterImageURIs",
          "type": "string[]"
        },
        {
          "internalType": "uint256[]",
          "name": "characterHp",
          "type": "uint256[]"
        },
        {
          "internalType": "uint256[]",
          "name": "characterAttackDmg",
          "type": "uint256[]"
        },
        {
          "internalType": "uint256[]",
          "name": "characterIntelligence",
          "type": "uint256[]"
        },
        {
          "internalType": "string",
          "name": "bossName",
          "type": "string"
        },
        {
          "internalType": "string",
          "name": "bossImageURI",
          "type": "string"
        },
        {
          "internalType": "uint256",
          "name": "bossHp",
          "type": "uint256"
        },
        {
          "internalType": "uint256",
          "name": "bossAttackDamage",
          "type": "uint256"
        }
      ],
      "stateMutability": "nonpayable",
      "type": "constructor"
    },
    {
      "anonymous": false,
      "inputs": [
        {
          "indexed": true,
          "internalType": "address",
          "name": "owner",
          "type": "address"
        },
        {
          "indexed": true,
          "internalType": "address",
          "name": "approved",
          "type": "address"
        },
        {
          "indexed": true,
          "internalType": "uint256",
          "name": "tokenId",
          "type": "uint256"
        }
      ],
      "name": "Approval",
      "type": "event"
    },
    {
      "anonymous": false,
      "inputs": [
        {
          "indexed": true,
          "internalType": "address",
          "name": "owner",
          "type": "address"
        },
        {
          "indexed": true,
          "internalType": "address",
          "name": "operator",
          "type": "address"
        },
        {
          "indexed": false,
          "internalType": "bool",
          "name": "approved",
          "type": "bool"
        }
      ],
      "name": "ApprovalForAll",
      "type": "event"
    },
    {
      "anonymous": false,
      "inputs": [
        {
          "indexed": false,
          "internalType": "uint256",
          "name": "newBossHp",
          "type": "uint256"
        },
        {
          "indexed": false,
          "internalType": "uint256",
          "name": "newPlayerHp",
          "type": "uint256"
        }
      ],
      "name": "AttackComplete",
      "type": "event"
    },
    {
      "anonymous": false,
      "inputs": [
        {
          "indexed": false,
          "internalType": "address",
          "name": "sender",
          "type": "address"
        },
        {
          "indexed": false,
          "internalType": "uint256",
          "name": "tokendId",
          "type": "uint256"
        },
        {
          "indexed": false,
          "internalType": "uint256",
          "name": "characterIndex",
          "type": "uint256"
        }
      ],
      "name": "CharacterNFTMinted",
      "type": "event"
    },
    {
      "anonymous": false,
      "inputs": [
        {
          "indexed": true,
          "internalType": "address",
          "name": "from",
          "type": "address"
        },
        {
          "indexed": true,
          "internalType": "address",
          "name": "to",
          "type": "address"
        },
        {
          "indexed": true,
          "internalType": "uint256",
          "name": "tokenId",
          "type": "uint256"
        }
      ],
      "name": "Transfer",
      "type": "event"
    },
    {
      "inputs": [
        {
          "internalType": "address",
          "name": "to",
          "type": "address"
        },
        {
          "internalType": "uint256",
          "name": "tokenId",
          "type": "uint256"
        }
      ],
      "name": "approve",
      "outputs": [],
      "stateMutability": "nonpayable",
      "type": "function"
    },
    {
      "inputs": [],
      "name": "attackBoss",
      "outputs": [],
      "stateMutability": "nonpayable",
      "type": "function"
    },
    {
      "inputs": [
        {
          "internalType": "address",
          "name": "owner",
          "type": "address"
        }
      ],
      "name": "balanceOf",
      "outputs": [
        {
          "internalType": "uint256",
          "name": "",
          "type": "uint256"
        }
      ],
      "stateMutability": "view",
      "type": "function"
    },
    {
      "inputs": [],
      "name": "bigBoss",
      "outputs": [
        {
          "internalType": "string",
          "name": "name",
          "type": "string"
        },
        {
          "internalType": "string",
          "name": "imageURI",
          "type": "string"
        },
        {
          "internalType": "uint256",
          "name": "hp",
          "type": "uint256"
        },
        {
          "internalType": "uint256",
          "name": "maxHp",
          "type": "uint256"
        },
        {
          "internalType": "uint256",
          "name": "attackDamage",
          "type": "uint256"
        }
      ],
      "stateMutability": "view",
      "type": "function"
    },
    {
      "inputs": [],
      "name": "checkIfUserHasNFT",
      "outputs": [
        {
          "components": [
            {
              "internalType": "uint256",
              "name": "characterIndex",
              "type": "uint256"
            },
            {
              "internalType": "string",
              "name": "name",
              "type": "string"
            },
            {
              "internalType": "string",
              "name": "imageURI",
              "type": "string"
            },
            {
              "internalType": "uint256",
              "name": "hp",
              "type": "uint256"
            },
            {
              "internalType": "uint256",
              "name": "maxHp",
              "type": "uint256"
            },
            {
              "internalType": "uint256",
              "name": "attackDamage",
              "type": "uint256"
            },
            {
              "internalType": "uint256",
              "name": "intelligence",
              "type": "uint256"
            }
          ],
          "internalType": "struct MyEpicGame.CharacterAttributes",
          "name": "",
          "type": "tuple"
        }
      ],
      "stateMutability": "view",
      "type": "function"
    },
    {
      "inputs": [],
      "name": "getAllDefaultCharacters",
      "outputs": [
        {
          "components": [
            {
              "internalType": "uint256",
              "name": "characterIndex",
              "type": "uint256"
            },
            {
              "internalType": "string",
              "name": "name",
              "type": "string"
            },
            {
              "internalType": "string",
              "name": "imageURI",
              "type": "string"
            },
            {
              "internalType": "uint256",
              "name": "hp",
              "type": "uint256"
            },
            {
              "internalType": "uint256",
              "name": "maxHp",
              "type": "uint256"
            },
            {
              "internalType": "uint256",
              "name": "attackDamage",
              "type": "uint256"
            },
            {
              "internalType": "uint256",
              "name": "intelligence",
              "type": "uint256"
            }
          ],
          "internalType": "struct MyEpicGame.CharacterAttributes[]",
          "name": "",
          "type": "tuple[]"
        }
      ],
      "stateMutability": "view",
      "type": "function"
    },
    {
      "inputs": [
        {
          "internalType": "uint256",
          "name": "tokenId",
          "type": "uint256"
        }
      ],
      "name": "getApproved",
      "outputs": [
        {
          "internalType": "address",
          "name": "",
          "type": "address"
        }
      ],
      "stateMutability": "view",
      "type": "function"
    },
    {
      "inputs": [],
      "name": "getBigBoss",
      "outputs": [
        {
          "components": [
            {
              "internalType": "string",
              "name": "name",
              "type": "string"
            },
            {
              "internalType": "string",
              "name": "imageURI",
              "type": "string"
            },
            {
              "internalType": "uint256",
              "name": "hp",
              "type": "uint256"
            },
            {
              "internalType": "uint256",
              "name": "maxHp",
              "type": "uint256"
            },
            {
              "internalType": "uint256",
              "name": "attackDamage",
              "type": "uint256"
            }
          ],
          "internalType": "struct MyEpicGame.BigBoss",
          "name": "",
          "type": "tuple"
        }
      ],
      "stateMutability": "view",
      "type": "function"
    },
    {
      "inputs": [
        {
          "internalType": "address",
          "name": "owner",
          "type": "address"
        },
        {
          "internalType": "address",
          "name": "operator",
          "type": "address"
        }
      ],
      "name": "isApprovedForAll",
      "outputs": [
        {
          "internalType": "bool",
          "name": "",
          "type": "bool"
        }
      ],
      "stateMutability": "view",
      "type": "function"
    },
    {
      "inputs": [
        {
          "internalType": "uint256",
          "name": "_characterIndex",
          "type": "uint256"
        }
      ],
      "name": "mintCharacterNFT",
      "outputs": [],
      "stateMutability": "nonpayable",
      "type": "function"
    },
    {
      "inputs": [],
      "name": "name",
      "outputs": [
        {
          "internalType": "string",
          "name": "",
          "type": "string"
        }
      ],
      "stateMutability": "view",
      "type": "function"
    },
    {
      "inputs": [
        {
          "internalType": "uint256",
          "name": "",
          "type": "uint256"
        }
      ],
      "name": "nftHolderAttributes",
      "outputs": [
        {
          "internalType": "uint256",
          "name": "characterIndex",
          "type": "uint256"
        },
        {
          "internalType": "string",
          "name": "name",
          "type": "string"
        },
        {
          "internalType": "string",
          "name": "imageURI",
          "type": "string"
        },
        {
          "internalType": "uint256",
          "name": "hp",
          "type": "uint256"
        },
        {
          "internalType": "uint256",
          "name": "maxHp",
          "type": "uint256"
        },
        {
          "internalType": "uint256",
          "name": "attackDamage",
          "type": "uint256"
        },
        {
          "internalType": "uint256",
          "name": "intelligence",
          "type": "uint256"
        }
      ],
      "stateMutability": "view",
      "type": "function"
    },
    {
      "inputs": [
        {
          "internalType": "address",
          "name": "",
          "type": "address"
        }
      ],
      "name": "nftHolders",
      "outputs": [
        {
          "internalType": "uint256",
          "name": "",
          "type": "uint256"
        }
      ],
      "stateMutability": "view",
      "type": "function"
    },
    {
      "inputs": [
        {
          "internalType": "uint256",
          "name": "tokenId",
          "type": "uint256"
        }
      ],
      "name": "ownerOf",
      "outputs": [
        {
          "internalType": "address",
          "name": "",
          "type": "address"
        }
      ],
      "stateMutability": "view",
      "type": "function"
    },
    {
      "inputs": [
        {
          "internalType": "address",
          "name": "from",
          "type": "address"
        },
        {
          "internalType": "address",
          "name": "to",
          "type": "address"
        },
        {
          "internalType": "uint256",
          "name": "tokenId",
          "type": "uint256"
        }
      ],
      "name": "safeTransferFrom",
      "outputs": [],
      "stateMutability": "nonpayable",
      "type": "function"
    },
    {
      "inputs": [
        {
          "internalType": "address",
          "name": "from",
          "type": "address"
        },
        {
          "internalType": "address",
          "name": "to",
          "type": "address"
        },
        {
          "internalType": "uint256",
          "name": "tokenId",
          "type": "uint256"
        },
        {
          "internalType": "bytes",
          "name": "_data",
          "type": "bytes"
        }
      ],
      "name": "safeTransferFrom",
      "outputs": [],
      "stateMutability": "nonpayable",
      "type": "function"
    },
    {
      "inputs": [
        {
          "internalType": "address",
          "name": "operator",
          "type": "address"
        },
        {
          "internalType": "bool",
          "name": "approved",
          "type": "bool"
        }
      ],
      "name": "setApprovalForAll",
      "outputs": [],
      "stateMutability": "nonpayable",
      "type": "function"
    },
    {
      "inputs": [
        {
          "internalType": "bytes4",
          "name": "interfaceId",
          "type": "bytes4"
        }
      ],
      "name": "supportsInterface",
      "outputs": [
        {
          "internalType": "bool",
          "name": "",
          "type": "bool"
        }
      ],
      "stateMutability": "view",
      "type": "function"
    },
    {
      "inputs": [],
      "name": "symbol",
      "outputs": [
        {
          "internalType": "string",
          "name": "",
          "type": "string"
        }
      ],
      "stateMutability": "view",
      "type": "function"
    },
    {
      "inputs": [
        {
          "internalType": "uint256",
          "name": "_tokenId",
          "type": "uint256"
        }
      ],
      "name": "tokenURI",
      "outputs": [
        {
          "internalType": "string",
          "name": "",
          "type": "string"
        }
      ],
      "stateMutability": "view",
      "type": "function"
    },
    {
      "inputs": [
        {
          "internalType": "address",
          "name": "from",
          "type": "address"
        },
        {
          "internalType": "address",
          "name": "to",
          "type": "address"
        },
        {
          "internalType": "uint256",
          "name": "tokenId",
          "type": "uint256"
        }
      ],
      "name": "transferFrom",
      "outputs": [],
      "stateMutability": "nonpayable",
      "type": "function"
    }
  ],
  "bytecode": "0x60806040523480156200001157600080fd5b5060405162005a0838038062005a08833981810160405281019062000037919062000b62565b6040518060400160405280600c81526020017f436173657320536f6c76656400000000000000000000000000000000000000008152506040518060400160405280600581526020017f43415345530000000000000000000000000000000000000000000000000000008152508160009080519060200190620000bb929190620008f5565b508060019080519060200190620000d4929190620008f5565b5050506040518060a0016040528085815260200184815260200183815260200183815260200182815250600a60008201518160000190805190602001906200011e929190620008f5565b5060208201518160010190805190602001906200013d929190620008f5565b50604082015181600201556060820151816003015560808201518160040155905050620002c06040518060600160405280602a8152602001620059de602a9139600a60000180546200018f9062000f77565b80601f0160208091040260200160405190810160405280929190818152602001828054620001bd9062000f77565b80156200020e5780601f10620001e2576101008083540402835291602001916200020e565b820191906000526020600020905b815481529060010190602001808311620001f057829003601f168201915b5050505050600a60020154600a60010180546200022b9062000f77565b80601f0160208091040260200160405190810160405280929190818152602001828054620002599062000f77565b8015620002aa5780601f106200027e57610100808354040283529160200191620002aa565b820191906000526020600020905b8154815290600101906020018083116200028c57829003601f168201915b50505050506200075e60201b62001c691760201c565b60005b8951811015620007375760076040518060e001604052808381526020018c84815181106200031a577f4e487b7100000000000000000000000000000000000000000000000000000000600052603260045260246000fd5b602002602001015181526020018b848151811062000361577f4e487b7100000000000000000000000000000000000000000000000000000000600052603260045260246000fd5b602002602001015181526020018a8481518110620003a8577f4e487b7100000000000000000000000000000000000000000000000000000000600052603260045260246000fd5b602002602001015181526020018a8481518110620003ef577f4e487b7100000000000000000000000000000000000000000000000000000000600052603260045260246000fd5b6020026020010151815260200189848151811062000436577f4e487b7100000000000000000000000000000000000000000000000000000000600052603260045260246000fd5b602002602001015181526020018884815181106200047d577f4e487b7100000000000000000000000000000000000000000000000000000000600052603260045260246000fd5b60200260200101518152509080600181540180825580915050600190039060005260206000209060070201600090919091909150600082015181600001556020820151816001019080519060200190620004d9929190620008f5565b506040820151816002019080519060200190620004f8929190620008f5565b50606082015181600301556080820151816004015560a0820151816005015560c08201518160060155505060006007828154811062000560577f4e487b7100000000000000000000000000000000000000000000000000000000600052603260045260246000fd5b90600052602060002090600702016040518060e001604052908160008201548152602001600182018054620005959062000f77565b80601f0160208091040260200160405190810160405280929190818152602001828054620005c39062000f77565b8015620006145780601f10620005e85761010080835404028352916020019162000614565b820191906000526020600020905b815481529060010190602001808311620005f657829003601f168201915b505050505081526020016002820180546200062f9062000f77565b80601f01602080910402602001604051908101604052809291908181526020018280546200065d9062000f77565b8015620006ae5780601f106200068257610100808354040283529160200191620006ae565b820191906000526020600020905b8154815290600101906020018083116200069057829003601f168201915b5050505050815260200160038201548152602001600482015481526020016005820154815260200160068201548152505090506200071f6040518060600160405280602e8152602001620059b0602e9139826020015183606001518460c001516200080a60201b62001d0b1760201c565b506001816200072f919062000eda565b9050620002c3565b506200074f6006620008b660201b62001dad1760201c565b50505050505050505062001065565b62000804848484846040516024016200077b949392919062000d3c565b6040516020818303038152906040527f8d142cdd000000000000000000000000000000000000000000000000000000007bffffffffffffffffffffffffffffffffffffffffffffffffffffffff19166020820180517bffffffffffffffffffffffffffffffffffffffffffffffffffffffff8381831617835250505050620008cc60201b60201c565b50505050565b620008b08484848460405160240162000827949392919062000d9e565b6040516020818303038152906040527fd5cf17d0000000000000000000000000000000000000000000000000000000007bffffffffffffffffffffffffffffffffffffffffffffffffffffffff19166020820180517bffffffffffffffffffffffffffffffffffffffffffffffffffffffff8381831617835250505050620008cc60201b60201c565b50505050565b6001816000016000828254019250508190555050565b60008151905060006a636f6e736f6c652e6c6f679050602083016000808483855afa5050505050565b828054620009039062000f77565b90600052602060002090601f01602090048101928262000927576000855562000973565b82601f106200094257805160ff191683800117855562000973565b8280016001018555821562000973579182015b828111156200097257825182559160200191906001019062000955565b5b50905062000982919062000986565b5090565b5b80821115620009a157600081600090555060010162000987565b5090565b6000620009bc620009b68462000e2d565b62000df9565b9050808382526020820190508260005b8581101562000a005781518501620009e5888262000b1e565b845260208401935060208301925050600181019050620009cc565b5050509392505050565b600062000a2162000a1b8462000e5c565b62000df9565b9050808382526020820190508285602086028201111562000a4157600080fd5b60005b8581101562000a75578162000a5a888262000b4b565b84526020840193506020830192505060018101905062000a44565b5050509392505050565b600062000a9662000a908462000e8b565b62000df9565b90508281526020810184848401111562000aaf57600080fd5b62000abc84828562000f41565b509392505050565b600082601f83011262000ad657600080fd5b815162000ae8848260208601620009a5565b91505092915050565b600082601f83011262000b0357600080fd5b815162000b1584826020860162000a0a565b91505092915050565b600082601f83011262000b3057600080fd5b815162000b4284826020860162000a7f565b91505092915050565b60008151905062000b5c816200104b565b92915050565b60008060008060008060008060006101208a8c03121562000b8257600080fd5b60008a015167ffffffffffffffff81111562000b9d57600080fd5b62000bab8c828d0162000ac4565b99505060208a015167ffffffffffffffff81111562000bc957600080fd5b62000bd78c828d0162000ac4565b98505060408a015167ffffffffffffffff81111562000bf557600080fd5b62000c038c828d0162000af1565b97505060608a015167ffffffffffffffff81111562000c2157600080fd5b62000c2f8c828d0162000af1565b96505060808a015167ffffffffffffffff81111562000c4d57600080fd5b62000c5b8c828d0162000af1565b95505060a08a015167ffffffffffffffff81111562000c7957600080fd5b62000c878c828d0162000b1e565b94505060c08a015167ffffffffffffffff81111562000ca557600080fd5b62000cb38c828d0162000b1e565b93505060e062000cc68c828d0162000b4b565b92505061010062000cda8c828d0162000b4b565b9150509295985092959850929598565b600062000cf78262000ebe565b62000d03818562000ec9565b935062000d1581856020860162000f41565b62000d20816200103a565b840191505092915050565b62000d368162000f37565b82525050565b6000608082019050818103600083015262000d58818762000cea565b9050818103602083015262000d6e818662000cea565b905062000d7f604083018562000d2b565b818103606083015262000d93818462000cea565b905095945050505050565b6000608082019050818103600083015262000dba818762000cea565b9050818103602083015262000dd0818662000cea565b905062000de1604083018562000d2b565b62000df0606083018462000d2b565b95945050505050565b6000604051905081810181811067ffffffffffffffff8211171562000e235762000e226200100b565b5b8060405250919050565b600067ffffffffffffffff82111562000e4b5762000e4a6200100b565b5b602082029050602081019050919050565b600067ffffffffffffffff82111562000e7a5762000e796200100b565b5b602082029050602081019050919050565b600067ffffffffffffffff82111562000ea95762000ea86200100b565b5b601f19601f8301169050602081019050919050565b600081519050919050565b600082825260208201905092915050565b600062000ee78262000f37565b915062000ef48362000f37565b9250827fffffffffffffffffffffffffffffffffffffffffffffffffffffffffffffffff0382111562000f2c5762000f2b62000fad565b5b828201905092915050565b6000819050919050565b60005b8381101562000f6157808201518184015260208101905062000f44565b8381111562000f71576000848401525b50505050565b6000600282049050600182168062000f9057607f821691505b6020821081141562000fa75762000fa662000fdc565b5b50919050565b7f4e487b7100000000000000000000000000000000000000000000000000000000600052601160045260246000fd5b7f4e487b7100000000000000000000000000000000000000000000000000000000600052602260045260246000fd5b7f4e487b7100000000000000000000000000000000000000000000000000000000600052604160045260246000fd5b6000601f19601f8301169050919050565b620010568162000f37565b81146200106257600080fd5b50565b61493b80620010756000396000f3fe608060405234801561001057600080fd5b50600436106101375760003560e01c806395d89b41116100b8578063b953084e1161007c578063b953084e1461036a578063c87b56dd14610388578063c8cf27f4146103b8578063d4f24c5b146103d6578063e985e9c5146103e0578063f8b81ef71461041057610137565b806395d89b41146102bc57806398da4c95146102da578063a22cb46514610310578063a9c326791461032c578063b88d4fde1461034e57610137565b806323b872dd116100ff57806323b872dd146101f457806342842e0e146102105780636352211e1461022c57806370a082311461025c5780637df124a11461028c57610137565b806301ffc9a71461013c5780630665f9611461016c57806306fdde031461018a578063081812fc146101a8578063095ea7b3146101d8575b600080fd5b610156600480360381019061015191906130b7565b61042c565b6040516101639190613ee1565b60405180910390f35b61017461050e565b604051610181919061427a565b60405180910390f35b61019261066a565b60405161019f9190613efc565b60405180910390f35b6101c260048036038101906101bd9190613109565b6106fc565b6040516101cf9190613e21565b60405180910390f35b6101f260048036038101906101ed919061307b565b610781565b005b61020e60048036038101906102099190612f75565b610899565b005b61022a60048036038101906102259190612f75565b6108f9565b005b61024660048036038101906102419190613109565b610919565b6040516102539190613e21565b60405180910390f35b61027660048036038101906102719190612f10565b6109cb565b60405161028391906142be565b60405180910390f35b6102a660048036038101906102a19190612f10565b610a83565b6040516102b391906142be565b60405180910390f35b6102c4610a9b565b6040516102d19190613efc565b60405180910390f35b6102f460048036038101906102ef9190613109565b610b2d565b60405161030797969594939291906142d9565b60405180910390f35b61032a6004803603810190610325919061303f565b610c7f565b005b610334610c95565b604051610345959493929190613fcb565b60405180910390f35b61036860048036038101906103639190612fc4565b610dc9565b005b610372610e2b565b60405161037f9190613ebf565b60405180910390f35b6103a2600480360381019061039d9190613109565b610fe0565b6040516103af9190613efc565b60405180910390f35b6103c0611219565b6040516103cd919061429c565b60405180910390f35b6103de6113fb565b005b6103fa60048036038101906103f59190612f39565b611786565b6040516104079190613ee1565b60405180910390f35b61042a60048036038101906104259190613109565b61181a565b005b60007f80ac58cd000000000000000000000000000000000000000000000000000000007bffffffffffffffffffffffffffffffffffffffffffffffffffffffff1916827bffffffffffffffffffffffffffffffffffffffffffffffffffffffff191614806104f757507f5b5e139f000000000000000000000000000000000000000000000000000000007bffffffffffffffffffffffffffffffffffffffffffffffffffffffff1916827bffffffffffffffffffffffffffffffffffffffffffffffffffffffff1916145b80610507575061050682611dc3565b5b9050919050565b610516612d30565b600a6040518060a001604052908160008201805461053390614638565b80601f016020809104026020016040519081016040528092919081815260200182805461055f90614638565b80156105ac5780601f10610581576101008083540402835291602001916105ac565b820191906000526020600020905b81548152906001019060200180831161058f57829003601f168201915b505050505081526020016001820180546105c590614638565b80601f01602080910402602001604051908101604052809291908181526020018280546105f190614638565b801561063e5780601f106106135761010080835404028352916020019161063e565b820191906000526020600020905b81548152906001019060200180831161062157829003601f168201915b505050505081526020016002820154815260200160038201548152602001600482015481525050905090565b60606000805461067990614638565b80601f01602080910402602001604051908101604052809291908181526020018280546106a590614638565b80156106f25780601f106106c7576101008083540402835291602001916106f2565b820191906000526020600020905b8154815290600101906020018083116106d557829003601f168201915b5050505050905090565b600061070782611e2d565b610746576040517f08c379a000000000000000000000000000000000000000000000000000000000815260040161073d906141da565b60405180910390fd5b6004600083815260200190815260200160002060009054906101000a900473ffffffffffffffffffffffffffffffffffffffff169050919050565b600061078c82610919565b90508073ffffffffffffffffffffffffffffffffffffffff168373ffffffffffffffffffffffffffffffffffffffff1614156107fd576040517f08c379a00000000000000000000000000000000000000000000000000000000081526004016107f49061423a565b60405180910390fd5b8073ffffffffffffffffffffffffffffffffffffffff1661081c611e99565b73ffffffffffffffffffffffffffffffffffffffff16148061084b575061084a81610845611e99565b611786565b5b61088a576040517f08c379a00000000000000000000000000000000000000000000000000000000081526004016108819061415a565b60405180910390fd5b6108948383611ea1565b505050565b6108aa6108a4611e99565b82611f5a565b6108e9576040517f08c379a00000000000000000000000000000000000000000000000000000000081526004016108e09061425a565b60405180910390fd5b6108f4838383612038565b505050565b61091483838360405180602001604052806000815250610dc9565b505050565b6000806002600084815260200190815260200160002060009054906101000a900473ffffffffffffffffffffffffffffffffffffffff169050600073ffffffffffffffffffffffffffffffffffffffff168173ffffffffffffffffffffffffffffffffffffffff1614156109c2576040517f08c379a00000000000000000000000000000000000000000000000000000000081526004016109b99061419a565b60405180910390fd5b80915050919050565b60008073ffffffffffffffffffffffffffffffffffffffff168273ffffffffffffffffffffffffffffffffffffffff161415610a3c576040517f08c379a0000000000000000000000000000000000000000000000000000000008152600401610a339061417a565b60405180910390fd5b600360008373ffffffffffffffffffffffffffffffffffffffff1673ffffffffffffffffffffffffffffffffffffffff168152602001908152602001600020549050919050565b60096020528060005260406000206000915090505481565b606060018054610aaa90614638565b80601f0160208091040260200160405190810160405280929190818152602001828054610ad690614638565b8015610b235780601f10610af857610100808354040283529160200191610b23565b820191906000526020600020905b815481529060010190602001808311610b0657829003601f168201915b5050505050905090565b6008602052806000526040600020600091509050806000015490806001018054610b5690614638565b80601f0160208091040260200160405190810160405280929190818152602001828054610b8290614638565b8015610bcf5780601f10610ba457610100808354040283529160200191610bcf565b820191906000526020600020905b815481529060010190602001808311610bb257829003601f168201915b505050505090806002018054610be490614638565b80601f0160208091040260200160405190810160405280929190818152602001828054610c1090614638565b8015610c5d5780601f10610c3257610100808354040283529160200191610c5d565b820191906000526020600020905b815481529060010190602001808311610c4057829003601f168201915b5050505050908060030154908060040154908060050154908060060154905087565b610c91610c8a611e99565b8383612294565b5050565b600a806000018054610ca690614638565b80601f0160208091040260200160405190810160405280929190818152602001828054610cd290614638565b8015610d1f5780601f10610cf457610100808354040283529160200191610d1f565b820191906000526020600020905b815481529060010190602001808311610d0257829003601f168201915b505050505090806001018054610d3490614638565b80601f0160208091040260200160405190810160405280929190818152602001828054610d6090614638565b8015610dad5780601f10610d8257610100808354040283529160200191610dad565b820191906000526020600020905b815481529060010190602001808311610d9057829003601f168201915b5050505050908060020154908060030154908060040154905085565b610dda610dd4611e99565b83611f5a565b610e19576040517f08c379a0000000000000000000000000000000000000000000000000000000008152600401610e109061425a565b60405180910390fd5b610e2584848484612401565b50505050565b60606007805480602002602001604051908101604052809291908181526020016000905b82821015610fd757838290600052602060002090600702016040518060e001604052908160008201548152602001600182018054610e8c90614638565b80601f0160208091040260200160405190810160405280929190818152602001828054610eb890614638565b8015610f055780601f10610eda57610100808354040283529160200191610f05565b820191906000526020600020905b815481529060010190602001808311610ee857829003601f168201915b50505050508152602001600282018054610f1e90614638565b80601f0160208091040260200160405190810160405280929190818152602001828054610f4a90614638565b8015610f975780601f10610f6c57610100808354040283529160200191610f97565b820191906000526020600020905b815481529060010190602001808311610f7a57829003601f168201915b5050505050815260200160038201548152602001600482015481526020016005820154815260200160068201548152505081526020019060010190610e4f565b50505050905090565b60606000600860008481526020019081526020016000206040518060e00160405290816000820154815260200160018201805461101c90614638565b80601f016020809104026020016040519081016040528092919081815260200182805461104890614638565b80156110955780601f1061106a57610100808354040283529160200191611095565b820191906000526020600020905b81548152906001019060200180831161107857829003601f168201915b505050505081526020016002820180546110ae90614638565b80601f01602080910402602001604051908101604052809291908181526020018280546110da90614638565b80156111275780601f106110fc57610100808354040283529160200191611127565b820191906000526020600020905b81548152906001019060200180831161110a57829003601f168201915b5050505050815260200160038201548152602001600482015481526020016005820154815260200160068201548152505090506000611169826060015161245d565b9050600061117a836080015161245d565b9050600061118b8460a0015161245d565b9050600061119c8560c0015161245d565b905060006111e486602001516111b18a61245d565b8860400151888888886040516020016111d09796959493929190613d42565b60405160208183030381529060405261260a565b90506000816040516020016111f99190613dff565b604051602081830303815290604052905080975050505050505050919050565b611221612d5f565b6000600960003373ffffffffffffffffffffffffffffffffffffffff1673ffffffffffffffffffffffffffffffffffffffff16815260200190815260200160002054905060008111156113ea57600860008281526020019081526020016000206040518060e0016040529081600082015481526020016001820180546112a690614638565b80601f01602080910402602001604051908101604052809291908181526020018280546112d290614638565b801561131f5780601f106112f45761010080835404028352916020019161131f565b820191906000526020600020905b81548152906001019060200180831161130257829003601f168201915b5050505050815260200160028201805461133890614638565b80601f016020809104026020016040519081016040528092919081815260200182805461136490614638565b80156113b15780601f10611386576101008083540402835291602001916113b1565b820191906000526020600020905b81548152906001019060200180831161139457829003601f168201915b505050505081526020016003820154815260200160048201548152602001600582015481526020016006820154815250509150506113f8565b6113f2612d5f565b80925050505b90565b6000600960003373ffffffffffffffffffffffffffffffffffffffff1673ffffffffffffffffffffffffffffffffffffffff168152602001908152602001600020549050600060086000838152602001908152602001600020905061150e6040518060600160405280603d8152602001614873603d913982600101805461148190614638565b80601f01602080910402602001604051908101604052809291908181526020018280546114ad90614638565b80156114fa5780601f106114cf576101008083540402835291602001916114fa565b820191906000526020600020905b8154815290600101906020018083116114dd57829003601f168201915b505050505083600301548460050154611d0b565b6115e66040518060400160405280601b81526020017f426f73732025732068617320257320485020616e642025732041440000000000815250600a600001805461155790614638565b80601f016020809104026020016040519081016040528092919081815260200182805461158390614638565b80156115d05780601f106115a5576101008083540402835291602001916115d0565b820191906000526020600020905b8154815290600101906020018083116115b357829003601f168201915b5050505050600a60020154600a60040154611d0b565b600081600301541161162d576040517f08c379a0000000000000000000000000000000000000000000000000000000008152600401611624906141fa565b60405180910390fd5b6000600a6002015411611675576040517f08c379a000000000000000000000000000000000000000000000000000000000815260040161166c9061409a565b60405180910390fd5b8060050154600a600201541015611696576000600a600201819055506116b5565b8060050154600a600201546116ab919061454e565b600a600201819055505b600a60040154816003015410156116d557600081600301819055506116f3565b600a6004015481600301546116ea919061454e565b81600301819055505b7f838ab28464562786a6c4ab2311964b82fa60bd9b14aa7e856af1f3f18d41a414600a60020154826003015460405161172d929190614356565b60405180910390a161175c60405180606001604052806025815260200161480e60259139600a600201546127c8565b6117826040518060600160405280602881526020016148b06028913982600301546127c8565b5050565b6000600560008473ffffffffffffffffffffffffffffffffffffffff1673ffffffffffffffffffffffffffffffffffffffff16815260200190815260200160002060008373ffffffffffffffffffffffffffffffffffffffff1673ffffffffffffffffffffffffffffffffffffffff16815260200190815260200160002060009054906101000a900460ff16905092915050565b60006118266006612864565b90506118323382612872565b6040518060e001604052808381526020016007848154811061187d577f4e487b7100000000000000000000000000000000000000000000000000000000600052603260045260246000fd5b9060005260206000209060070201600101805461189990614638565b80601f01602080910402602001604051908101604052809291908181526020018280546118c590614638565b80156119125780601f106118e757610100808354040283529160200191611912565b820191906000526020600020905b8154815290600101906020018083116118f557829003601f168201915b5050505050815260200160078481548110611956577f4e487b7100000000000000000000000000000000000000000000000000000000600052603260045260246000fd5b9060005260206000209060070201600201805461197290614638565b80601f016020809104026020016040519081016040528092919081815260200182805461199e90614638565b80156119eb5780601f106119c0576101008083540402835291602001916119eb565b820191906000526020600020905b8154815290600101906020018083116119ce57829003601f168201915b5050505050815260200160078481548110611a2f577f4e487b7100000000000000000000000000000000000000000000000000000000600052603260045260246000fd5b906000526020600020906007020160030154815260200160078481548110611a80577f4e487b7100000000000000000000000000000000000000000000000000000000600052603260045260246000fd5b906000526020600020906007020160040154815260200160078481548110611ad1577f4e487b7100000000000000000000000000000000000000000000000000000000600052603260045260246000fd5b906000526020600020906007020160050154815260200160078481548110611b22577f4e487b7100000000000000000000000000000000000000000000000000000000600052603260045260246000fd5b90600052602060002090600702016006015481525060086000838152602001908152602001600020600082015181600001556020820151816001019080519060200190611b70929190612d9c565b506040820151816002019080519060200190611b8d929190612d9c565b50606082015181600301556080820151816004015560a0820151816005015560c08201518160060155905050611bdc6040518060600160405280602e81526020016148d8602e91398284612890565b80600960003373ffffffffffffffffffffffffffffffffffffffff1673ffffffffffffffffffffffffffffffffffffffff16815260200190815260200160002081905550611c2a6006611dad565b7f4bc303fd457a97b4691b9af582ce71868a3d258638c8d4f8c60988a0f0bfb8cd338284604051611c5d93929190613e88565b60405180910390a15050565b611d0584848484604051602401611c839493929190613f1e565b6040516020818303038152906040527f8d142cdd000000000000000000000000000000000000000000000000000000007bffffffffffffffffffffffffffffffffffffffffffffffffffffffff19166020820180517bffffffffffffffffffffffffffffffffffffffffffffffffffffffff838183161783525050505061292f565b50505050565b611da784848484604051602401611d259493929190613f78565b6040516020818303038152906040527fd5cf17d0000000000000000000000000000000000000000000000000000000007bffffffffffffffffffffffffffffffffffffffffffffffffffffffff19166020820180517bffffffffffffffffffffffffffffffffffffffffffffffffffffffff838183161783525050505061292f565b50505050565b6001816000016000828254019250508190555050565b60007f01ffc9a7000000000000000000000000000000000000000000000000000000007bffffffffffffffffffffffffffffffffffffffffffffffffffffffff1916827bffffffffffffffffffffffffffffffffffffffffffffffffffffffff1916149050919050565b60008073ffffffffffffffffffffffffffffffffffffffff166002600084815260200190815260200160002060009054906101000a900473ffffffffffffffffffffffffffffffffffffffff1673ffffffffffffffffffffffffffffffffffffffff1614159050919050565b600033905090565b816004600083815260200190815260200160002060006101000a81548173ffffffffffffffffffffffffffffffffffffffff021916908373ffffffffffffffffffffffffffffffffffffffff160217905550808273ffffffffffffffffffffffffffffffffffffffff16611f1483610919565b73ffffffffffffffffffffffffffffffffffffffff167f8c5be1e5ebec7d5bd14f71427d1e84f3dd0314c0f7b2291e5b200ac8c7c3b92560405160405180910390a45050565b6000611f6582611e2d565b611fa4576040517f08c379a0000000000000000000000000000000000000000000000000000000008152600401611f9b9061413a565b60405180910390fd5b6000611faf83610919565b90508073ffffffffffffffffffffffffffffffffffffffff168473ffffffffffffffffffffffffffffffffffffffff16148061201e57508373ffffffffffffffffffffffffffffffffffffffff16612006846106fc565b73ffffffffffffffffffffffffffffffffffffffff16145b8061202f575061202e8185611786565b5b91505092915050565b8273ffffffffffffffffffffffffffffffffffffffff1661205882610919565b73ffffffffffffffffffffffffffffffffffffffff16146120ae576040517f08c379a00000000000000000000000000000000000000000000000000000000081526004016120a59061421a565b60405180910390fd5b600073ffffffffffffffffffffffffffffffffffffffff168273ffffffffffffffffffffffffffffffffffffffff16141561211e576040517f08c379a0000000000000000000000000000000000000000000000000000000008152600401612115906140fa565b60405180910390fd5b612129838383612958565b612134600082611ea1565b6001600360008573ffffffffffffffffffffffffffffffffffffffff1673ffffffffffffffffffffffffffffffffffffffff1681526020019081526020016000206000828254612184919061454e565b925050819055506001600360008473ffffffffffffffffffffffffffffffffffffffff1673ffffffffffffffffffffffffffffffffffffffff16815260200190815260200160002060008282546121db919061446d565b92505081905550816002600083815260200190815260200160002060006101000a81548173ffffffffffffffffffffffffffffffffffffffff021916908373ffffffffffffffffffffffffffffffffffffffff160217905550808273ffffffffffffffffffffffffffffffffffffffff168473ffffffffffffffffffffffffffffffffffffffff167fddf252ad1be2c89b69c2b068fc378daa952ba7f163c4a11628f55a4df523b3ef60405160405180910390a4505050565b8173ffffffffffffffffffffffffffffffffffffffff168373ffffffffffffffffffffffffffffffffffffffff161415612303576040517f08c379a00000000000000000000000000000000000000000000000000000000081526004016122fa9061411a565b60405180910390fd5b80600560008573ffffffffffffffffffffffffffffffffffffffff1673ffffffffffffffffffffffffffffffffffffffff16815260200190815260200160002060008473ffffffffffffffffffffffffffffffffffffffff1673ffffffffffffffffffffffffffffffffffffffff16815260200190815260200160002060006101000a81548160ff0219169083151502179055508173ffffffffffffffffffffffffffffffffffffffff168373ffffffffffffffffffffffffffffffffffffffff167f17307eab39ab6107e8899845ad3d59bd9653f200f220920489ca2b5937696c31836040516123f49190613ee1565b60405180910390a3505050565b61240c848484612038565b6124188484848461295d565b612457576040517f08c379a000000000000000000000000000000000000000000000000000000000815260040161244e906140ba565b60405180910390fd5b50505050565b606060008214156124a5576040518060400160405280600181526020017f30000000000000000000000000000000000000000000000000000000000000008152509050612605565b600082905060005b600082146124d75780806124c09061466a565b915050600a826124d091906144c3565b91506124ad565b60008167ffffffffffffffff811115612519577f4e487b7100000000000000000000000000000000000000000000000000000000600052604160045260246000fd5b6040519080825280601f01601f19166020018201604052801561254b5781602001600182028036833780820191505090505b5090505b600085146125fe57600182612564919061454e565b9150600a8561257391906146b3565b603061257f919061446d565b60f81b8183815181106125bb577f4e487b7100000000000000000000000000000000000000000000000000000000600052603260045260246000fd5b60200101907effffffffffffffffffffffffffffffffffffffffffffffffffffffffffffff1916908160001a905350600a856125f791906144c3565b945061254f565b8093505050505b919050565b6060600082519050600081141561263357604051806020016040528060008152509150506127c3565b60006003600283612644919061446d565b61264e91906144c3565b600461265a91906144f4565b9050600060208261266b919061446d565b67ffffffffffffffff8111156126aa577f4e487b7100000000000000000000000000000000000000000000000000000000600052604160045260246000fd5b6040519080825280601f01601f1916602001820160405280156126dc5781602001600182028036833780820191505090505b5090506000604051806060016040528060408152602001614833604091399050600181016020830160005b868110156127805760038101905062ffffff818a015116603f8160121c168401518060081b905060ff603f83600c1c1686015116810190508060081b905060ff603f8360061c1686015116810190508060081b905060ff603f831686015116810190508060e01b90508084526004840193505050612707565b50600386066001811461279a57600281146127aa576127b5565b613d3d60f01b60028303526127b5565b603d60f81b60018303525b508484525050819450505050505b919050565b61286082826040516024016127de92919061402c565b6040516020818303038152906040527f9710a9d0000000000000000000000000000000000000000000000000000000007bffffffffffffffffffffffffffffffffffffffffffffffffffffffff19166020820180517bffffffffffffffffffffffffffffffffffffffffffffffffffffffff838183161783525050505061292f565b5050565b600081600001549050919050565b61288c828260405180602001604052806000815250612af4565b5050565b61292a8383836040516024016128a89392919061405c565b6040516020818303038152906040527f969cdd03000000000000000000000000000000000000000000000000000000007bffffffffffffffffffffffffffffffffffffffffffffffffffffffff19166020820180517bffffffffffffffffffffffffffffffffffffffffffffffffffffffff838183161783525050505061292f565b505050565b60008151905060006a636f6e736f6c652e6c6f679050602083016000808483855afa5050505050565b505050565b600061297e8473ffffffffffffffffffffffffffffffffffffffff16612b4f565b15612ae7578373ffffffffffffffffffffffffffffffffffffffff1663150b7a026129a7611e99565b8786866040518563ffffffff1660e01b81526004016129c99493929190613e3c565b602060405180830381600087803b1580156129e357600080fd5b505af1925050508015612a1457506040513d601f19601f82011682018060405250810190612a1191906130e0565b60015b612a97573d8060008114612a44576040519150601f19603f3d011682016040523d82523d6000602084013e612a49565b606091505b50600081511415612a8f576040517f08c379a0000000000000000000000000000000000000000000000000000000008152600401612a86906140ba565b60405180910390fd5b805181602001fd5b63150b7a0260e01b7bffffffffffffffffffffffffffffffffffffffffffffffffffffffff1916817bffffffffffffffffffffffffffffffffffffffffffffffffffffffff191614915050612aec565b600190505b949350505050565b612afe8383612b62565b612b0b600084848461295d565b612b4a576040517f08c379a0000000000000000000000000000000000000000000000000000000008152600401612b41906140ba565b60405180910390fd5b505050565b600080823b905060008111915050919050565b600073ffffffffffffffffffffffffffffffffffffffff168273ffffffffffffffffffffffffffffffffffffffff161415612bd2576040517f08c379a0000000000000000000000000000000000000000000000000000000008152600401612bc9906141ba565b60405180910390fd5b612bdb81611e2d565b15612c1b576040517f08c379a0000000000000000000000000000000000000000000000000000000008152600401612c12906140da565b60405180910390fd5b612c2760008383612958565b6001600360008473ffffffffffffffffffffffffffffffffffffffff1673ffffffffffffffffffffffffffffffffffffffff1681526020019081526020016000206000828254612c77919061446d565b92505081905550816002600083815260200190815260200160002060006101000a81548173ffffffffffffffffffffffffffffffffffffffff021916908373ffffffffffffffffffffffffffffffffffffffff160217905550808273ffffffffffffffffffffffffffffffffffffffff16600073ffffffffffffffffffffffffffffffffffffffff167fddf252ad1be2c89b69c2b068fc378daa952ba7f163c4a11628f55a4df523b3ef60405160405180910390a45050565b6040518060a0016040528060608152602001606081526020016000815260200160008152602001600081525090565b6040518060e00160405280600081526020016060815260200160608152602001600081526020016000815260200160008152602001600081525090565b828054612da890614638565b90600052602060002090601f016020900481019282612dca5760008555612e11565b82601f10612de357805160ff1916838001178555612e11565b82800160010185558215612e11579182015b82811115612e10578251825591602001919060010190612df5565b5b509050612e1e9190612e22565b5090565b5b80821115612e3b576000816000905550600101612e23565b5090565b6000612e52612e4d846143b0565b61437f565b905082815260208101848484011115612e6a57600080fd5b612e758482856145f6565b509392505050565b600081359050612e8c816147b1565b92915050565b600081359050612ea1816147c8565b92915050565b600081359050612eb6816147df565b92915050565b600081519050612ecb816147df565b92915050565b600082601f830112612ee257600080fd5b8135612ef2848260208601612e3f565b91505092915050565b600081359050612f0a816147f6565b92915050565b600060208284031215612f2257600080fd5b6000612f3084828501612e7d565b91505092915050565b60008060408385031215612f4c57600080fd5b6000612f5a85828601612e7d565b9250506020612f6b85828601612e7d565b9150509250929050565b600080600060608486031215612f8a57600080fd5b6000612f9886828701612e7d565b9350506020612fa986828701612e7d565b9250506040612fba86828701612efb565b9150509250925092565b60008060008060808587031215612fda57600080fd5b6000612fe887828801612e7d565b9450506020612ff987828801612e7d565b935050604061300a87828801612efb565b925050606085013567ffffffffffffffff81111561302757600080fd5b61303387828801612ed1565b91505092959194509250565b6000806040838503121561305257600080fd5b600061306085828601612e7d565b925050602061307185828601612e92565b9150509250929050565b6000806040838503121561308e57600080fd5b600061309c85828601612e7d565b92505060206130ad85828601612efb565b9150509250929050565b6000602082840312156130c957600080fd5b60006130d784828501612ea7565b91505092915050565b6000602082840312156130f257600080fd5b600061310084828501612ebc565b91505092915050565b60006020828403121561311b57600080fd5b600061312984828501612efb565b91505092915050565b600061313e8383613bde565b905092915050565b61314f81614582565b82525050565b6000613160826143f0565b61316a818561441e565b93508360208202850161317c856143e0565b8060005b858110156131b857848403895281516131998582613132565b94506131a483614411565b925060208a01995050600181019050613180565b50829750879550505050505092915050565b6131d381614594565b82525050565b60006131e4826143fb565b6131ee818561442f565b93506131fe818560208601614605565b613207816147a0565b840191505092915050565b600061321d82614406565b6132278185614440565b9350613237818560208601614605565b613240816147a0565b840191505092915050565b600061325682614406565b6132608185614451565b9350613270818560208601614605565b613279816147a0565b840191505092915050565b600061328f82614406565b6132998185614462565b93506132a9818560208601614605565b80840191505092915050565b60006132c2600b83614462565b91507f202d2d204e465420233a200000000000000000000000000000000000000000006000830152600b82019050919050565b6000613302602883614451565b91507f4572726f723a20426f7373206d757374206861766520485020746f206174746160008301527f636b20626f73732e0000000000000000000000000000000000000000000000006020830152604082019050919050565b6000613368603283614451565b91507f4552433732313a207472616e7366657220746f206e6f6e20455243373231526560008301527f63656976657220696d706c656d656e74657200000000000000000000000000006020830152604082019050919050565b60006133ce601c83614451565b91507f4552433732313a20746f6b656e20616c7265616479206d696e746564000000006000830152602082019050919050565b600061340e602483614451565b91507f4552433732313a207472616e7366657220746f20746865207a65726f2061646460008301527f72657373000000000000000000000000000000000000000000000000000000006020830152604082019050919050565b6000613474601983614451565b91507f4552433732313a20617070726f766520746f2063616c6c6572000000000000006000830152602082019050919050565b60006134b4600f83614462565b91507f2c20226d61785f76616c7565223a2000000000000000000000000000000000006000830152600f82019050919050565b60006134f4602c83614451565b91507f4552433732313a206f70657261746f7220717565727920666f72206e6f6e657860008301527f697374656e7420746f6b656e00000000000000000000000000000000000000006020830152604082019050919050565b600061355a603883614451565b91507f4552433732313a20617070726f76652063616c6c6572206973206e6f74206f7760008301527f6e6572206e6f7220617070726f76656420666f7220616c6c00000000000000006020830152604082019050919050565b60006135c0602a83614451565b91507f4552433732313a2062616c616e636520717565727920666f7220746865207a6560008301527f726f2061646472657373000000000000000000000000000000000000000000006020830152604082019050919050565b6000613626602983614451565b91507f4552433732313a206f776e657220717565727920666f72206e6f6e657869737460008301527f656e7420746f6b656e00000000000000000000000000000000000000000000006020830152604082019050919050565b600061368c600483614462565b91507f7d205d7d000000000000000000000000000000000000000000000000000000006000830152600482019050919050565b60006136cc602083614451565b91507f4552433732313a206d696e7420746f20746865207a65726f20616464726573736000830152602082019050919050565b600061370c602c83614451565b91507f4552433732313a20617070726f76656420717565727920666f72206e6f6e657860008301527f697374656e7420746f6b656e00000000000000000000000000000000000000006020830152604082019050919050565b6000613772602a83614451565b91507f4572726f723a20506c61796572206d757374206861766520485020746f20617460008301527f7461636b20626f73732e000000000000000000000000000000000000000000006020830152604082019050919050565b60006137d8602983614451565b91507f4552433732313a207472616e73666572206f6620746f6b656e2074686174206960008301527f73206e6f74206f776e00000000000000000000000000000000000000000000006020830152604082019050919050565b600061383e607083614462565b91507f222c20226465736372697074696f6e223a20225468697320697320616e204e4660008301527f54207768696368206c6574732070656f706c6520706c6179207468652067616d60208301527f6520426c61636b204f7267616e697a6174696f6e20536c6179657221222c202260408301527f696d616765223a2022697066733a2f2f000000000000000000000000000000006060830152607082019050919050565b60006138f0600a83614462565b91507f7b226e616d65223a2022000000000000000000000000000000000000000000006000830152600a82019050919050565b6000613930602183614451565b91507f4552433732313a20617070726f76616c20746f2063757272656e74206f776e6560008301527f72000000000000000000000000000000000000000000000000000000000000006020830152604082019050919050565b6000613996601d83614462565b91507f646174613a6170706c69636174696f6e2f6a736f6e3b6261736536342c0000006000830152601d82019050919050565b60006139d6603183614451565b91507f4552433732313a207472616e736665722063616c6c6572206973206e6f74206f60008301527f776e6572206e6f7220617070726f7665640000000000000000000000000000006020830152604082019050919050565b6000613a3c603d83614462565b91507f222c202261747472696275746573223a205b207b202274726169745f7479706560008301527f223a20224865616c746820506f696e7473222c202276616c7565223a200000006020830152603d82019050919050565b6000613aa2602d83614462565b91507f7d2c207b202274726169745f74797065223a202241747461636b2044616d616760008301527f65222c202276616c7565223a20000000000000000000000000000000000000006020830152602d82019050919050565b6000613b08602c83614462565b91507f7d2c207b202274726169745f74797065223a2022496e74656c6c6967656e636560008301527f222c202276616c7565223a2000000000000000000000000000000000000000006020830152602c82019050919050565b600060a0830160008301518482036000860152613b7e8282613212565b91505060208301518482036020860152613b988282613212565b9150506040830151613bad6040860182613d24565b506060830151613bc06060860182613d24565b506080830151613bd36080860182613d24565b508091505092915050565b600060e083016000830151613bf66000860182613d24565b5060208301518482036020860152613c0e8282613212565b91505060408301518482036040860152613c288282613212565b9150506060830151613c3d6060860182613d24565b506080830151613c506080860182613d24565b5060a0830151613c6360a0860182613d24565b5060c0830151613c7660c0860182613d24565b508091505092915050565b600060e083016000830151613c996000860182613d24565b5060208301518482036020860152613cb18282613212565b91505060408301518482036040860152613ccb8282613212565b9150506060830151613ce06060860182613d24565b506080830151613cf36080860182613d24565b5060a0830151613d0660a0860182613d24565b5060c0830151613d1960c0860182613d24565b508091505092915050565b613d2d816145ec565b82525050565b613d3c816145ec565b82525050565b6000613d4d826138e3565b9150613d59828a613284565b9150613d64826132b5565b9150613d708289613284565b9150613d7b82613831565b9150613d878288613284565b9150613d9282613a2f565b9150613d9e8287613284565b9150613da9826134a7565b9150613db58286613284565b9150613dc082613a95565b9150613dcc8285613284565b9150613dd782613afb565b9150613de38284613284565b9150613dee8261367f565b915081905098975050505050505050565b6000613e0a82613989565b9150613e168284613284565b915081905092915050565b6000602082019050613e366000830184613146565b92915050565b6000608082019050613e516000830187613146565b613e5e6020830186613146565b613e6b6040830185613d33565b8181036060830152613e7d81846131d9565b905095945050505050565b6000606082019050613e9d6000830186613146565b613eaa6020830185613d33565b613eb76040830184613d33565b949350505050565b60006020820190508181036000830152613ed98184613155565b905092915050565b6000602082019050613ef660008301846131ca565b92915050565b60006020820190508181036000830152613f16818461324b565b905092915050565b60006080820190508181036000830152613f38818761324b565b90508181036020830152613f4c818661324b565b9050613f5b6040830185613d33565b8181036060830152613f6d818461324b565b905095945050505050565b60006080820190508181036000830152613f92818761324b565b90508181036020830152613fa6818661324b565b9050613fb56040830185613d33565b613fc26060830184613d33565b95945050505050565b600060a0820190508181036000830152613fe5818861324b565b90508181036020830152613ff9818761324b565b90506140086040830186613d33565b6140156060830185613d33565b6140226080830184613d33565b9695505050505050565b60006040820190508181036000830152614046818561324b565b90506140556020830184613d33565b9392505050565b60006060820190508181036000830152614076818661324b565b90506140856020830185613d33565b6140926040830184613d33565b949350505050565b600060208201905081810360008301526140b3816132f5565b9050919050565b600060208201905081810360008301526140d38161335b565b9050919050565b600060208201905081810360008301526140f3816133c1565b9050919050565b6000602082019050818103600083015261411381613401565b9050919050565b6000602082019050818103600083015261413381613467565b9050919050565b60006020820190508181036000830152614153816134e7565b9050919050565b600060208201905081810360008301526141738161354d565b9050919050565b60006020820190508181036000830152614193816135b3565b9050919050565b600060208201905081810360008301526141b381613619565b9050919050565b600060208201905081810360008301526141d3816136bf565b9050919050565b600060208201905081810360008301526141f3816136ff565b9050919050565b6000602082019050818103600083015261421381613765565b9050919050565b60006020820190508181036000830152614233816137cb565b9050919050565b6000602082019050818103600083015261425381613923565b9050919050565b60006020820190508181036000830152614273816139c9565b9050919050565b600060208201905081810360008301526142948184613b61565b905092915050565b600060208201905081810360008301526142b68184613c81565b905092915050565b60006020820190506142d36000830184613d33565b92915050565b600060e0820190506142ee600083018a613d33565b8181036020830152614300818961324b565b90508181036040830152614314818861324b565b90506143236060830187613d33565b6143306080830186613d33565b61433d60a0830185613d33565b61434a60c0830184613d33565b98975050505050505050565b600060408201905061436b6000830185613d33565b6143786020830184613d33565b9392505050565b6000604051905081810181811067ffffffffffffffff821117156143a6576143a5614771565b5b8060405250919050565b600067ffffffffffffffff8211156143cb576143ca614771565b5b601f19601f8301169050602081019050919050565b6000819050602082019050919050565b600081519050919050565b600081519050919050565b600081519050919050565b6000602082019050919050565b600082825260208201905092915050565b600082825260208201905092915050565b600082825260208201905092915050565b600082825260208201905092915050565b600081905092915050565b6000614478826145ec565b9150614483836145ec565b9250827fffffffffffffffffffffffffffffffffffffffffffffffffffffffffffffffff038211156144b8576144b76146e4565b5b828201905092915050565b60006144ce826145ec565b91506144d9836145ec565b9250826144e9576144e8614713565b5b828204905092915050565b60006144ff826145ec565b915061450a836145ec565b9250817fffffffffffffffffffffffffffffffffffffffffffffffffffffffffffffffff0483118215151615614543576145426146e4565b5b828202905092915050565b6000614559826145ec565b9150614564836145ec565b925082821015614577576145766146e4565b5b828203905092915050565b600061458d826145cc565b9050919050565b60008115159050919050565b60007fffffffff0000000000000000000000000000000000000000000000000000000082169050919050565b600073ffffffffffffffffffffffffffffffffffffffff82169050919050565b6000819050919050565b82818337600083830152505050565b60005b83811015614623578082015181840152602081019050614608565b83811115614632576000848401525b50505050565b6000600282049050600182168061465057607f821691505b6020821081141561466457614663614742565b5b50919050565b6000614675826145ec565b91507fffffffffffffffffffffffffffffffffffffffffffffffffffffffffffffffff8214156146a8576146a76146e4565b5b600182019050919050565b60006146be826145ec565b91506146c9836145ec565b9250826146d9576146d8614713565b5b828206905092915050565b7f4e487b7100000000000000000000000000000000000000000000000000000000600052601160045260246000fd5b7f4e487b7100000000000000000000000000000000000000000000000000000000600052601260045260246000fd5b7f4e487b7100000000000000000000000000000000000000000000000000000000600052602260045260246000fd5b7f4e487b7100000000000000000000000000000000000000000000000000000000600052604160045260246000fd5b6000601f19601f8301169050919050565b6147ba81614582565b81146147c557600080fd5b50565b6147d181614594565b81146147dc57600080fd5b50565b6147e8816145a0565b81146147f357600080fd5b50565b6147ff816145ec565b811461480a57600080fd5b5056fe506c617965722061747461636b656420426f73732e204e657720626f73732068703a2025734142434445464748494a4b4c4d4e4f505152535455565758595a6162636465666768696a6b6c6d6e6f707172737475767778797a303132333435363738392b2f0a20506c6179657220772f206368617261637465722025732061626f757420746f2061747461636b2e2048617320257320687020616e64202573204144426f73732061747461636b656420706c617965722e204e657720706c617965722068703a2025730a4d696e746564204e465420772f20746f6b656e496420257320616e6420636861726163746572496e646578202573a2646970667358221220fc2b8fd826bb39d7c42b4123d311359a294ad6f6d4edd1dbc7daef16f943c80364736f6c63430008000033446f6e6520696e697469616c697a696e6720257320772f2048502025732c20496e74656c6c6967656e6365202573446f6e6520696e697469616c697a696e6720626f737320257320772f2048502025732c20696d67202573",
  "linkReferences": {},
  "deployedLinkReferences": {}
}